:1000000000800120E90400001556000031050000C1
:1000100000000000000000000000000000000000E0
:100020000000000000000000000000003505000096
:100030000000000000000000390500003D05000040
:100040004105000045050000490500004D05000080
:1000500029050000290500002905000029050000E8
:100060005105000055050000590500002905000054
:100070005D05000029050000290500002905000094
:1000800029050000290500002905000029050000B8
:1000900029050000290500002905000029050000A8
:1000A0002905000029050000290500002905000098
:1000B0002905000061050000290500002905000050
:10040000FFFFFFFFFFFFFFFFFFFFFFFFFEFFFFFFFD
:1004100010B5064C2378002B07D1054B002B02D0DA
:10042000044800E000BF0123237010BDC88BFF1FEC
:10043000000000002CDF0000084B10B5002B03D09B
:100440000749084800E000BF07480368002B00D1B7
:1004500010BD064B002BFBD09847F9E700000000C9
:10046000CC8BFF1F2CDF0000C08BFF1F00000000A3
:10047000164B002B00D1144B9D46402292029A1A33
:10048000924600218B460F461348144A121A06F072
:10049000EFFA0F4B002B00D098470E4B002B00D0EB
:1004A00098470020002104000D000D48002802D0CC
:1004B0000C4805F0F4F906F0B3F92000290005F026
:1004C00021FA05F0E9F9C04600000800008001208B
:1004D00000000000F5580000C88BFF1F709CFF1F34
:1004E0009F5800000000000072B6084808490160EB
:1004F000084880470849094A094B9B1A03DD043B19
:10050000C858D050FBDC62B60648804708ED00E0D2
:10051000000000005D5C000058DF00000082FF1F4B
:10052000C48BFF1F710400000E4800470E480047AF
:100530000E4800470E4800470E4800470E48004747
:100540000E4800470E4800470E4800470E48004737
:100550000E4800470E4800470E4800470E48004727
:100560000E4800472905000015560000310500001F
:1005700035050000390500003D050000394E00003A
:10058000494E0000594E0000694E00009D4E00008B
:10059000B54E00001D4D0000A9530000554D000050
:1005A00002B4714649084900095C49008E4402BC06
:1005B0007047C046002243088B4274D303098B4224
:1005C0005FD3030A8B4244D3030B8B4228D3030C23
:1005D0008B420DD3FF22090212BA030C8B4202D3C5
:1005E0001212090265D0030B8B4219D300E0090AED
:1005F000C30B8B4201D3CB03C01A5241830B8B42F6
:1006000001D38B03C01A5241430B8B4201D34B03DE
:10061000C01A5241030B8B4201D30B03C01A524143
:10062000C30A8B4201D3CB02C01A5241830A8B42C8
:1006300001D38B02C01A5241430A8B4201D34B02B1
:10064000C01A5241030A8B4201D30B02C01A524115
:10065000CDD2C3098B4201D3CB01C01A52418309C9
:100660008B4201D38B01C01A524143098B4201D303
:100670004B01C01A524103098B4201D30B01C01A2E
:100680005241C3088B4201D3CB00C01A52418308A8
:100690008B4201D38B00C01A524143088B4201D3D5
:1006A0004B00C01A5241411A00D201465241104635
:1006B0007047FFE701B5002000F0F0F802BDC0462A
:1006C0000029F7D076E7704703460B437FD400221A
:1006D00043088B4274D303098B425FD3030A8B42D6
:1006E00044D3030B8B4228D3030C8B420DD3FF2240
:1006F000090212BA030C8B4202D31212090265D00E
:10070000030B8B4219D300E0090AC30B8B4201D3C0
:10071000CB03C01A5241830B8B4201D38B03C01A07
:100720005241430B8B4201D34B03C01A5241030B7E
:100730008B4201D30B03C01A5241C30A8B4201D32F
:10074000CB02C01A5241830A8B4201D38B02C01ADA
:100750005241430A8B4201D34B02C01A5241030A51
:100760008B4201D30B02C01A5241CDD2C3098B4236
:1007700001D3CB01C01A524183098B4201D38B01B3
:10078000C01A524143098B4201D34B01C01A524156
:1007900003098B4201D30B01C01A5241C3088B429B
:1007A00001D3CB00C01A524183088B4201D38B0086
:1007B000C01A524143088B4201D34B00C01A524128
:1007C000411A00D201465241104670475DE0CA0FFF
:1007D00000D04942031000D34042534000229C46BF
:1007E00003098B422DD3030A8B4212D3FC228901C9
:1007F00012BA030A8B420CD3890192118B4208D39F
:10080000890192118B4204D389013AD0921100E000
:100810008909C3098B4201D3CB01C01A5241830914
:100820008B4201D38B01C01A524143098B4201D341
:100830004B01C01A524103098B4201D30B01C01A6C
:100840005241C3088B4201D3CB00C01A52418308E6
:100850008B4201D38B00C01A5241D9D243088B423C
:1008600001D34B00C01A5241411A00D201466346DF
:1008700052415B10104601D34042002B00D5494243
:10088000704763465B1000D3404201B5002000F082
:1008900005F802BD0029F8D016E770477047C0463A
:1008A0008446101C62468C46191C634600E0C04614
:1008B0001FB500F0F9FF002801D40021C8421FBD78
:1008C00010B500F04DFF4042013010BD10B500F0F2
:1008D000EBFF002801DB002010BD012010BDC04649
:1008E00010B500F0E1FF002801DD002010BD01205F
:1008F00010BDC04610B500F073FF002801DC0020D9
:1009000010BD012010BDC04610B500F069FF0028E1
:1009100001DA002010BD012010BDC046002B11D10E
:10092000002A0FD1002900D1002802D00021C9439C
:10093000081C07B4024802A14018029003BDC0463B
:100940005DFFFFFF03B4684601B5029800F006F8AA
:10095000019B9E4602B00CBC7047C046F0B54D46A8
:10096000564644465F46F0B4924683B004000D00FC
:1009700099468B422FD82CD04946504601F0BAFEFA
:1009800029000600200001F0B5FE331A9846203BEE
:100990009B4600D574E053465A4693401F00534689
:1009A000424693401E00AF4229D826D05B46A41B86
:1009B000BD41002B00DA79E0002200230092019370
:1009C00001235A46934001930123424693400093EA
:1009D00019E08242D0D900220023009201930C9B9F
:1009E000002B01D01C605D600098019903B03CBCF5
:1009F00090469946A246AB46F0BDA342D6D9002206
:100A00000023009201934346002BE8D0FB077208B5
:100A10001A4346467B080EE0AB4201D1A2420CD8F5
:100A2000A41A9D41012024196D410021013E241882
:100A30004D41002E06D0AB42EED9013E24196D4146
:100A4000002EF8D15B460098019900196941002BEE
:100A500022DB2B005A46D3402A004446E2401C00C9
:100A60005B461500002B2CDB26009E403300260041
:100A70004746BE403200801A994100900191AEE78E
:100A8000424620239B1A5246DA40414613004A460A
:100A90008A4017001F4382E7424620239B1A2A0000
:100AA00046469A402300F3401343D5E742462023AD
:100AB00000219B1A0022009101920122DA4001924A
:100AC00082E74246202326009B1ADE402F00B446D0
:100AD000974066463B003343C9E7C046F8B55646E3
:100AE0005F464D464446F0B40F00FD0FAA46090389
:100AF0007C002E005F00450F490A7F0D2943C50089
:100B00001803BC46400A570F640DDB0F3843D20070
:100B10009A4500D1AAE06646A61B002E00DCFFE045
:100B20006346002B39D10300134300D0D9E06B0793
:100B300009D00F232B40042B05D02B1DAB42AD4118
:100B40006D4249191D000B0200D482E0CA4B0134EA
:100B50009C4200D1FEE00A005646C84BED081A4000
:100B60005007640552020543120B640D0021120365
:100B70000B0D1B056405120B1A436308C04CF607E6
:100B800014401C43640064083443280021003CBC2A
:100B900090469946A246AB46F8BDB74B9C42C6D09C
:100BA00080231B041843382E00DDEBE01F2E00DDF0
:100BB0001EE120239B1B9C4603006746BB409846D2
:100BC00013004746F3403B436746BA40571EBA41BD
:100BD00013430200F240EB1A9D42B6411D008A1AEF
:100BE0007642911B0B0231D54A02560A002E00D1E3
:100BF000B4E0300001F060FD0300083B1F2B00DD76
:100C0000B5E020222900D21AD1409E400A009D4022
:100C100032439C4200DDB1E01C1B631C1F2B00DD36
:100C2000D5E0202114002800C91A8C40D8408D40FE
:100C30000443DA40681E854111002543002476E70D
:100C40004146314300D134E2310045466B0700D0C4
:100C50006FE756464807ED08C9080543864B9C4296
:100C600035D00A036405120B640D7FE76346E31A6F
:100C70009B46002B00DC8BE06746002F3CD07E4F6C
:100C8000BC4200D153E780273F0438435B46382BF2
:100C900000DCF7E00243501E82410020D2B253191B
:100CA0004218AB4289411D00494289180B02CDD53B
:100CB000714B01349C4200D13DE101206F4A6B0829
:100CC0000A4028401843D507054351082FE72B0059
:100CD0000B4300D1CBE180231B030B431A03120B00
:100CE00044E7013E002E6DD1AE1AB5429B41091A70
:100CF0005B42C91A350075E70700174300D116E7B4
:100D000001235B429C46E3445B46002B00D0E0E0BD
:100D1000AA18AA429B4109185B4259181500C5E759
:100D2000002E75D1661C7605760D012E00DCF3E0F1
:100D3000AE1AB0464545BF410E1A7F42F61B370238
:100D400000D48FE0551BAA42B641411A76428E1B51
:100D50009A464BE756460022002507E7280001F097
:100D6000ABFC20300300083B1F2B00DC49E72A00C6
:100D70002838824000259C4200DC4DE73F49E41AB8
:100D80001140D4E60243501E8241D3B2002222E732
:100D9000002B00D0F3E0631C9C465B055B0D012B30
:100DA00000DC9FE0344B9C4500D1C3E0AA18091831
:100DB000AA42804140424118CD07520815434908D4
:100DC0006446B4E62C4B9C4200D0ECE6AFE6110042
:100DD0001F3CE1400C00202B00D17FE04021CB1ACA
:100DE0009A4015436A1E95410021254300242DE7B2
:100DF00033000700203BDF403B00202E70D040270F
:100E0000BE1BB0400243501E824113430022E2E663
:100E1000002C4FD0184CA44500D1ABE08024240412
:100E200076422143382E00DDDFE01F2E00DD43E156
:100E30002027BC1BA1460C004F46BC40A0462C00FE
:100E40004746F4403C434F46BD406F1EBD41F14014
:100E50002C43151BAA429241411A5242891A6446F8
:100E60009A46BFE641464546314300D0BEE60026DD
:100E700000240025F2E6C046FF070000FFFF7FFFC9
:100E8000FFFF0F801F2B59DC2027FF1ABC460700ED
:100E900063469F405B46B9461700DF40B8464F4661
:100EA00043461F4363469A40531E9A415B463A436A
:100EB000D840F4E60C002C435CD0F643002E55D10C
:100EC000551BAA42A441411A6442091B9A46644632
:100ED00088E6964FBC4200D0D8E628E6002280E79C
:100EE00000208FE70B002B43002C00D0C2E0002B2A
:100EF00000D101E10300134300D118E6AB18AB4267
:100F0000B6410918764271180A0200D409E1884AEC
:100F10001D00114064460AE6002C5BD10E002E43F2
:100F200000D08AE00100114300D1C2E001001500A9
:100F30009A46FCE56446002100258FE620235B42AB
:100F40009C46DC4463460700DF405B46BC46202BE2
:100F500000D1ACE040235F46DB1B98400243501EAB
:100F60008241634613431A00002098E66F4CA44563
:100F700000D057E70100150064469A46D7E5002CDB
:100F800039D10C002C436ED0DB43002B1AD0674CB8
:100F9000A44568D0382B00DDA4E01F2B00DDAEE0B7
:100FA00020240F00E41AA740B9462F00DF40B846BE
:100FB000A3464F46444627435C46A5406C1EA541C8
:100FC000D9403D43AD1895429B4109185B425918E1
:100FD00064466BE60C002C4315D1010011437BD015
:100FE000010015009A46514CA1E50D43691E8D4143
:100FF0000021ECB22DE74D4CA44534D080242404CC
:101000005B422143C6E7040014434ED0ED084C0771
:101010002C438025C9082D03294208D0C6082E423A
:1010200005D1D208410711430C009A463100620FE6
:10103000C900E50011433D4C79E50600164300D197
:1010400075E5AE1AB0464545BF410E1A7F42F61B04
:10105000370200D4F4E5551BAA42B641411A764244
:10106000891B9A4663E50100150064465FE500228E
:1010700000257BE5002B3BD00300134315D0ED0882
:101080004B072B438025C9082D03294207D0C408EC
:101090002C4204D141070B002100D2081343C900A0
:1010A0005A0F1143DD00214C41E5204C3FE5002063
:1010B00054E700260025D1E534000F00203CE7402E
:1010C0003C00202E2BD04027BE1BB1400D43691E93
:1010D0008D4100212C43BCE6802100260903134CDE
:1010E0000025BBE50D43691E8D410021EDB269E786
:1010F000010015000D4C1AE50100150017E51C0054
:101100000F00203CE7403C00202B0CD04027FB1A6E
:1011100099400D43691E8D410021254352E700216E
:10112000D4E71D0092E50021F3E7C046FF07000069
:10113000FFFF7FFFF0B556464D4644465F46F0B48C
:101140001D000E034C00CB0F87B00700924681466E
:10115000360B640D98466AD06D4B9C4235D0802288
:10116000430F12041343F6001E43C3009946694B14
:1011700000279C460023644402932B0368001B0B4A
:10118000ED0F51469B46400D009500D178E0604B35
:1011900098426CD05B46DA004B0F802109040B4368
:1011A00013439B465346D9005A4B9C460023604448
:1011B0004246201A6A40924601901F430F2F00D9E1
:1011C000B0E05548BF00C0598746374300D088E09B
:1011D000002399460233082700260293CDE74346B1
:1011E000B34649460093029B009A9246022B00D0D8
:1011F000BFE1002153460122002689461A40444B94
:10120000002136030C0D2405360B2643434C1B05E9
:1012100026401E437600D207760816434846310022
:1012200007B03CBC90469946A246AB46F0BD3300A1
:1012300003434FD0002E00D1BCE1300001F03CFA56
:1012400003000B3B1C2B00DDADE11D220100D31A76
:1012500008393A008F408E40DA40B9461643304B89
:1012600000279C46002360444442029385E753468E
:101270005A4613432CD1002300219B46023397E7A3
:101280000B4320D05B46002B00D19EE1584601F075
:1012900013FA03000B3B1C2B00DD8FE102005946C3
:1012A000083A91408B461D21CB1A5146D9400B007C
:1012B00059460B4351469B469140194B9C4660440E
:1012C0004042002374E7002300219B4601336FE76F
:1012D00003236DE700239946013304270026029378
:1012E0004BE703230C27029347E70122D51A382D39
:1012F00000DCB0E153461A40002100230026894655
:101300007EE700238026994600223603004B77E7CC
:10131000FF07000001FCFFFF04C90000FFFF0F8072
:10132000F30300005E4500D972E100D16DE1019B3D
:101330004D46013B01930023340002935B461E029D
:101340000B0E1E430B020393330C994633041B0C04
:10135000494620000093FFF72DF9009B37004343D7
:101360000600494620009846FFF7AAF92C0C09040C
:101370000C43A04509D9E419731EA74200D95CE1CA
:10138000A04500D859E1023EE4194346E41A494613
:101390002000FFF70FF90300009A804653434946A7
:1013A00020009B46FFF78CF92A040904120C0A431B
:1013B00093450DD94346D219013B974200D93AE1F2
:1013C000934500D837E102235B429C46D219E044A2
:1013D0005B46D21A4346360433439B460399180CA6
:1013E0000B0C1D00059309045B46090C0C001B0443
:1013F0001B0C4443049159436B4368431B190D0C68
:10140000EB189C4203D980246402A44660441C0C5F
:1014100009041B04090C20185D18824200D2DEE08A
:1014200000D1D7E0161A029B9C465D1BAC459B4140
:101430005B42F61AB74200D106E149463000FFF799
:10144000B9F8009B04004343494630009846FFF733
:1014500037F92E0C09040E43B04509D9F619631E5D
:10146000B74200D9F3E0B04500D8F0E0023CF619ED
:101470004346F31A494618000293FFF79BF8009B76
:1014800006004343494602989846FFF719F92D0490
:1014900009042D0C0D43A84509D9ED19731EAF425F
:1014A00000D9D6E0A84500D8D3E0023EED192404C7
:1014B000210043463143049E059A3000ED1A0B0487
:1014C0000C0C1B0C58436643534354439A19030CAA
:1014D0009B189E4203D980225202944664441A0CFF
:1014E00000041B04000C14191B18A54250D34DD046
:1014F00001231943964A019B94466344002B00DC68
:10150000F3E64A0709D00F220A40042A05D00A1D33
:101510008A42894149428B4411005A46D20108D57A
:101520005A468C4B1A4093468022D2009446019B27
:101530006344894A934200DD5BE65A46C908500776
:1015400008435602514601225B058146360B5B0D6E
:101550000A4055E680231B031E4211D05A461A4208
:101560000ED15E461E433603360B2A0089467B4B5E
:1015700046E6032B00D1E1E0012BBBD11A40BBE6CC
:101580001E433603360B4246744B39E6002BB1D06E
:101590007D194A1EAF4252D91100A542A8D1039A23
:1015A0009A42A5D1A6E703003E00283B9E400023B7
:1015B000994654E601F080F8203041E60300524697
:1015C000283B9A400021934677E6504601F074F894
:1015D00020305EE6029B0026AB4200D323E7039E49
:1015E0000299B44661448846B045B6415B467642AE
:1015F000F619B218013B0291974213D290424FD88C
:1016000000D18EE0161A9B460DE7894500D28EE682
:1016100074084B46F60735005B081D434B46DB0755
:1016200002938BE69742EDD10399029CA142E5D942
:101630003E1A9B46F7E69846CAE61E00A5E6AC426F
:101640003ED874D0110053E70121494252E71C00F3
:101650000EE71E002BE71F2D3CDC20230A00584616
:101660005B1B9840EA4099400243481E81415E4618
:101670001143EE404B0709D00F230B40042B05D03C
:101680000B00191D99429B415B42F61833023CD571
:101690005346012200211A40002601238946AFE566
:1016A00002235B429C46039CE344A446029B6344A2
:1016B0009846A045B6417642F6190293B218B1E6B3
:1016C00003988A1E41008142B6417642F619AD194F
:1016D000039161E71F225242D31A5A46DA4013009F
:1016E000202D29D040225846551BA8400143481EB2
:1016F000814107200B4318400026002809D00F2203
:1017000000261A401900042ABBD10B00700776028C
:10171000360BDB0803439946012253461A40002347
:101720006EE502998D42BBD89B4600267BE6039866
:101730009842C5D3110032E70020D7E780265B46E8
:1017400036031E433603360B009A8946034B57E592
:10175000FF030000FFFFFFFEFE070000FF07000081
:10176000F0B55F4656464D464446F0B41F035C0054
:10177000DB0F9A46194B0E034D00C90F8046360BFE
:101780006D0D8B4691463F0B640D9D4219D0134B56
:101790009C421BD00123A54206D018003CBC9046B9
:1017A0009946A246AB46F0BDBE42F6D1C845F4D13B
:1017B000D34510D0002DF0D1304303005A1E934181
:1017C000EBE7310001230143E7D1E0E73A4301238E
:1017D000002AE2D1DEE70023DFE7C046FF07000072
:1017E000F0B55F46444656464D46F0B41F033C0BE9
:1017F0002C4F0E034D00A3465C008446360B6D0D46
:10180000C90F9046640DDB0FBD422BD0254FBC4263
:101810002ED0002D0ED1304307008146784278410A
:10182000002C17D15F463A4314D14B460020002BC1
:101830000AD006E0002C02D15846024301D099425A
:101840001AD00123484218433CBC90469946A24610
:10185000AB46F0BD0028F2D0584258410122404228
:101860001043F1E737000743D0D002204042EBE7B6
:101870005F461743CDD0F8E7A542E2DC05DB5E45C5
:10188000DFD808D000205E45DED24842484101231F
:1018900040421843D8E7C445D3D80020C445F4D308
:1018A000D2E7C046FF070000F0B55F464D4644460C
:1018B0005646F0B41C03240BA4462F4C0F034D00D6
:1018C0005E00C90F80463F0B6D0D8B469146760D2D
:1018D000DB0FA54220D0284CA64222D0002D12D1E9
:1018E000384344424441002E20D0002C0DD05C42AD
:1018F000634101245B421C4320003CBC9046994656
:10190000A246AB46F0BD002E17D05B4519D05B4612
:101910005C4201231C43EFE7390002240143EBD171
:10192000D9E7614602241143E6D1D7E761460A436D
:10193000DBD100240028DFD0E9E761460A43E4D187
:10194000E5E7B54203DD01225C421443D4E7B5422A
:10195000CDDB6745DBD809D000246745CCD259469A
:101960004C426141012449420C43C5E7C845CED8E9
:101970000024C845F3D3BFE7FF070000F0B55F467A
:1019800056464D464446F0B40D0399464E002B0B87
:1019900087B00700924680469B46760DCC0F002EFE
:1019A00069D06D4B9E4235D05B468022DD0012042B
:1019B000430F13432B439B46C3009846674B0027B6
:1019C0009C460023664401934A4615035000D20FFB
:1019D00053462D0B400D914600D176E05E4A904271
:1019E0006CD080225B0F120413435C4AED009446D6
:1019F0001D4353460022DB00604449463618701CE4
:101A00006140029017430F2F00D9AFE05448BF0048
:101A1000C759BF465B461F4300D088E000239B4662
:101A20009846023308270193CEE74946022A6AD036
:101A3000032A00D109E2012A00D0BBE111400022B3
:101A4000002300259046CCB200212D030A0D12057B
:101A50002D0B1543434A1B0515401D436D00E4073C
:101A60006D0825434046290007B03CBC9046994686
:101A7000A246AB46F0BD034352D05B46002B00D1DB
:101A80008AE1584600F018FE03000B3B1C2B00DDDA
:101A90007BE11D22D31A3A0001005D46DA40083985
:101AA0008D4013008F402B439B46B8462E4B00279A
:101AB0009C46002360444642019385E752462A43F0
:101AC0002CD100250023022297E752462A4321D039
:101AD000002D00D154E1280000F0EEFD03000B3B87
:101AE0001C2B00DD46E11D21CB1A51460200D940D6
:101AF0005346083A954093400D431B4A9446604430
:101B00004042002279E7012400220C40124B0025BC
:101B1000904699E70025002301226EE703226CE737
:101B200000239B4698460133042701934CE7032387
:101B30000C27019348E700238025984600242D03B5
:101B4000054B81E75D464346019A6FE75D46434694
:101B50002100019A6AE7C046FF07000001FCFFFF71
:101B600044C90000FFFF0F80F30300004246120C3F
:101B700091461A0C9446424617044A461B041B0C15
:101B80005A43604690464A464243100003926246DA
:101B90001C003F0C7A437C4342440192220C924643
:101BA000019A5244904506D98246802040028046E0
:101BB000C24450460390100C049048462404240C60
:101BC0001204121905922A0C2D042D0C68432C00C6
:101BD000824648467C4350438146200C804657430A
:101BE00057444744BA4503D9802040028046C14447
:101BF000380C3F04B84648442404240C019004984F
:101C0000A044404404905846000C814658460404C1
:101C1000200C8246070048465F434C4643436046DB
:101C200060436446834650464443380C8446E41877
:101C30006444A34203D980235B029C46E3444846A4
:101C40003F04230C3F0C2404E419574668436F43B8
:101C500084464D46504655434243380C81466244C3
:101C60004A445B44944503D980204002844665443D
:101C700003983F04834604983F0C8446E344C345DD
:101C8000804140428246100484460198674484465D
:101C90006744A344BC46A345A4419946D444644246
:101CA0008742BF41D4458041E144A04699459B41CC
:101CB0007F424042C8440743120CBA18A045A441D1
:101CC0005F423B0064422343D71843467D19DB0D36
:101CD0006D021D435B465A02059B1A43531E9A41EF
:101CE0005B46DB0D1A4343465B021343EA0107D50B
:101CF00001225C0813402343EA07029E13436D0848
:101D0000574AB218002A4BDD580709D00F20184057
:101D1000042805D0181D98429B415B42ED18030032
:101D2000E80104D54F4A15408022D200B2184E482F
:101D3000824200DDE7E60124DB08680718436D02F4
:101D4000530580462D0B5B0D0C407DE680225946E5
:101D50001203114208D0154206D115432D039846AF
:101D60002D0B4C46414B6FE65D4615432D032D0B65
:101D70003E4B69E603005546283B9D400023BCE6E8
:101D8000504600F099FC2030A8E60300283B9F4015
:101D90000023BB46984689E600F08EFC203073E6AF
:101DA0000124A61A382E07DD00220C40002300254E
:101DB000904649E6029EA3E71F2E20DC20222C003D
:101DC0001800921BF040944093400443581E8341F6
:101DD0001C43F540630709D00F232340042B05D093
:101DE00023001C1D9C4292415242AD182B021FD56C
:101DF000012400220C4001230025904624E61F20E8
:101E00002C004042821AD440202E1CD04022961B27
:101E1000B5402B43581E834107202343184000251B
:101E2000002809D00F2200251A401C00042AD8D10E
:101E3000230068076D022D0B0124DB08034398463D
:101E40000C40002300E60025E3E780220124120372
:101E500015432D0398462D0B0C40044BF4E5C0466A
:101E6000FF030000FFFFFFFEFE070000FF0700006A
:101E7000F0B557464E464546E0B40E001100F20F4D
:101E80009246C500420F180337037400400A4E0FF4
:101E90007F0A3043CF4E17435A00640D520DDB0FBB
:101EA000C900B24200D1E5E001267340A61AB4464B
:101EB000534500D1AFE0002E00DC0DE1002A3AD1FD
:101EC00003000B4300D0E4E06B0709D00F232B4045
:101ED000042B05D02B1DAB42AD416D427F191D0077
:101EE0003B0200D488E0BB4B01349C4200D110E19E
:101EF0003A00B94B51461A4001235007ED085202EF
:101F000064050543120B640D0B40002128001203E9
:101F10000D0D120B64052D0515436208AF4CDB0750
:101F20002C401443640064081C4321001CBC9046F0
:101F30009946A246F0BDA74B9C42C5D080231B0406
:101F400018436346382B00DDFDE01F2B00DD30E138
:101F5000624620239B1A02009A40664690460A0079
:101F60009940F24046464B1E994132431143634625
:101F70000200DA40691A8D429B410D00BA1A5B4299
:101F8000D71A3B0235D57A02530A98464346002BAE
:101F900000D1C4E0404600F08FFB0300083B1F2B3C
:101FA00000DDC5E020222900D21A4746D1409F40DB
:101FB0000A009D403A439C4200DDC0E01C1B631CAC
:101FC0001F2B00DDE4E0202114002800C91AD840AE
:101FD0008C408D400443DA40681E8541170025433C
:101FE000002471E7424663461A4300D14CE267463B
:101FF00045466B0700D069E7012351467807ED0895
:10200000FA080B40054373498C4238D0120364052B
:10201000120B640D79E7002E00DC9AE0002A47D00D
:102020006C4A944200D14FE780221204104362466A
:10203000382A00DC08E10143481E81410022C9B270
:102040004919D219A942BF410D007F42BF183A0277
:1020500000D442E15F4A0134944200D14EE10120B4
:102060005D4A69083A4028400843D50705435708A8
:102070009A4629E706000E4300D017E714E7290027
:10208000114300D1F9E1802109030A431203120B25
:102090003BE701235B429846C4446346002B72D160
:1020A000691A8D429B413F1A5B42FF1A0D0068E797
:1020B00002000A4300D107E7012252429046C4447D
:1020C0006246002A00D0E6E06918A942B6413F18EE
:1020D0007642F7190D00BAE7002E00D080E0621CAE
:1020E0005205520D012A00DCF9E06A1A91464D456D
:1020F000B6413A1A7642921B9046120200D499E0F9
:102100004D1BA9428941C71B49427A1A90469A46FB
:102110003CE752460123002513400022F5E6280043
:1021200000F0CAFA20300300083B1F2B00DC39E71F
:102130002A002838824000259C4200DC3EE7264FDA
:10214000E41A1740C0E60143481E81410022C9B28B
:1021500010E7002E00D0F1E0621C94465205520DAB
:10216000012A00DCA0E01B4A944500D1C5E06918B3
:10217000A94292413F185242D2194908D5070D434E
:1021800057086446A0E6134B9C4200D0D9E69BE674
:1021900011001F3CE1400C00202B00D180E04021C9
:1021A000CB1A9A4015436A1E954100272543002407
:1021B0001FE763460200203BDA406346202B71D0C4
:1021C000402366469B1B98400143481E81411143B2
:1021D0000022CFE6FF070000FFFF7FFFFFFF0F8019
:1021E000002C48D0CA4CA24200D1A2E07442A146C1
:1021F0008024240427434C46382C00DDDBE01F2CD0
:1022000000DD44E14E462024A41B3E00A640A24629
:10221000B0464C462E00E640B44646466446264349
:102220005446A5406C1EA54134002C434D46EF405A
:102230000D1B28E04A4643464D461A4300D0A5E60A
:10224000002300240025DEE61F2A5ADC66462022F1
:10225000921B060096409146B04662460E00D6405C
:10226000424616434A4691404A1E9141020060464A
:102270003143C240E4E63C002C435AD0F443A1462B
:10228000002C52D14D1BA9428941C71B49427F1ADC
:1022900014009A4675E69E4A944200D0C7E613E6BB
:1022A00000227FE700208FE7002C00D0C8E03B0031
:1022B0002B4300D10FE103000B4300D104E6691862
:1022C000A9429B413F185B42DF193B0200D41AE14F
:1022D000904B0D001F406446F6E59A4689E63A00A9
:1022E0002A43002C5CD1002A75D102000A4300D198
:1022F000CAE007000D009A46E6E564460022002584
:1023000081E662460600203AD6406246B046202A60
:1023100000D1B7E040226646921B904001434246FE
:10232000481E8141114300228AE6794CA24200D026
:1023300061E707000D0014009A46C5E5002C41D165
:102340003C002C4378D0F443A146002C20D0704CA4
:10235000A24271D04C46382C00DDB2E01F2C00DDCB
:10236000BCE02026341BA2463C005646B4404E46F4
:10237000A0462C00F440A446444666463443A44696
:102380005446A54064466E1EB54125434C46E74081
:102390006D188D4289413F184942CF19140056E605
:1023A000002A2FD102000A4300D184E007000D006B
:1023B0009A46574C88E53D436F1EBD41ECB200275D
:1023C0000D1B60E7524CA24236D074428026360480
:1023D000A1463743BEE702000A4300D174E56A1AFA
:1023E00090464545B6413A1A7642921B94461202EF
:1023F00000D4F7E54D1BA9428941C71B49427F1A0A
:102400009A4661E502000A433AD0ED087C072C4366
:102410008025FA082D032A4208D0C7082F4205D18B
:1024200045072C003A009A46C9080C43670FD200B2
:10243000E5001743364C47E507000D00140043E55F
:102440003A002A4343D002000A4319D0ED087C0722
:102450002C438025FA082D032A4207D0C6082E42B5
:1024600004D147073C003200C9080C43D700620F73
:10247000E50017439A46264C26E50022002544E550
:10248000234C21E5002049E700230025BBE54C460D
:102490003E00203CE6404C46B446202C31D040243F
:1024A0004E46A61BB7403D436C1EA54164462C43D7
:1024B00000270D1BE7E6802200231203144C0025A1
:1024C000A1E53D436F1EBD410027EDB260E7070067
:1024D0000D000F4CF8E407000D00F5E44E463C00FB
:1024E000203EF440A0464C46202C0ED040244E46C0
:1024F000A41BA7403D436F1EBD4144460027254312
:1025000046E70027CFE70D0073E50027F2E7C04656
:10251000FF070000FFFF7FFF70B50E4E0C031D0389
:1025200049005B00240B490D2D0B5B0DB14204D01B
:10253000084900208B4208D070BD04430120002CC4
:10254000FAD1044900208B42F6D115432800451EDC
:10255000A841F1E7FF0700000B0330B5134D1A0B3C
:102560004B005B0DC90F0024AB4211DD104CA342A0
:1025700010DC8024640322430E4CE41A1F2C0CDD73
:102580000D48C31ADA4013005C42002900D11C0038
:10259000200030BD094BCC18FAE7E040084CA446B7
:1025A00063449A4013000343EEE7C046FE03000075
:1025B0001D0400003304000013040000FFFFFF7F30
:1025C000EDFBFFFF70B5002830D0C317C4185C4086
:1025D000C50F200000F070F8174B184A1B1AD21ACA
:1025E0001F2A18DD164AD21A9440002224035B05E4
:1025F000240B5B0D0021100024030A0D1205240B8F
:102600001443104A1B0514401C436400ED07640882
:102610002C43210070BD210091400A000B21081AB3
:10262000C4405B052403240B5B0DE3E70025002376
:1026300000240022DEE7C0461E0400003304000030
:1026400013040000FFFF0F8070B5051E28D000F0B6
:1026500033F8154B154A1B1AD21A1F2A16DD2C0007
:10266000134A0025D21A94405A052403240B520D14
:10267000002124030B0D240B1B0523430D4C1205D5
:10268000234013435B002800590870BD0B212C0028
:10269000081AC440954024035A05240B520DE7E75D
:1026A00000220024E4E7C0461E04000033040000BA
:1026B00013040000FFFF0F801C2101231B0498421C
:1026C00001D3000C10391B0A984201D3000A0839C3
:1026D0001B09984201D30009043902A2105C40187A
:1026E0007047C0460403020201010101000000001E
:1026F0000000000010B5002903D1FFF7DDFF2030F6
:1027000002E0081CFFF7D8FF10BDC04610B50368F3
:10271000984710BD002801D00B68036070477047D0
:10272000F7B584273F01144E300003F039FC002830
:1027300020D0124C124DE259635901335B055B0DF9
:102740000193934216D0300003F0C6FB63590B4A45
:10275000C0B2D318383318702369002B03D17E28F8
:1027600001D101332361019B064A6351A358013310
:10277000A350D8E7F7BDC046E88BFF1F188CFF1F9A
:10278000380800004408000010B50400024B036044
:1027900003F0C4FC200010BDD4D7000010B5144CC9
:1027A0008022200012010021383004F061F900235A
:1027B000104A1149A3500432A350104A2361A35078
:1027C0000F4A6362A3500F4AA362A3500E4AE3620A
:1027D000A150E92109016350852301221B01E3185F
:1027E00023600A4BE261E31822622263636010BD3A
:1027F000188CFF1F3C08000010270000380800005C
:102800004408000048080000980E0000540800002A
:1028100010B50121074802F04DFE0121064802F0E3
:1028200049FE0121054802F045FE0121044802F05D
:1028300041FE10BDE48BFF1FB49AFF1F168CFF1FD3
:10284000148CFF1F014B18697047C046188CFF1F7E
:1028500070B508210124074A074D93691E004640C0
:102860005B10264200D06B40013940100029F5D1A1
:10287000936170BD188CFF1F08840000F8B5084BE9
:1028800005000E0004001F00064A9A61631B9E4269
:1028900004DD2078FFF7DCFF0134F7E7B869F8BD05
:1028A000188CFF1FFFFF000010B5074A074C135993
:1028B000D1183831013308785B0505495B0D135198
:1028C0005358013B535010BD188CFF1F3C080000AB
:1028D0004408000010B5002488B00B4A0B4BD358B5
:1028E0009C4209DA85231B01E318D25C084968463B
:1028F00004F046F90134F0E70649684652580649A3
:1029000004F03EF908B010BD188CFF1F4808000005
:1029100062CC00004C08000068CC000010B501003B
:10292000014803F0E8FA10BDE88BFF1F10B5040062
:102930001F2803DD03007D3B012B04D87D20FFF71A
:10294000EDFF20206040FFF7E9FF10BD70B5164C89
:10295000164DE36A00260133E3626359991E85230D
:102960001B01E018FFF78AFFC0436359104AE318C0
:102970009A1810700F4A00129B1818707E20FFF7EB
:10298000CDFF63599E420ADA562003F031FD8523BC
:102990001B01F318E05CFFF7C9FF0136F1E77E2069
:1029A000FFF7BCFF70BDC046188CFF1F4808000031
:1029B0004E0800004F0800000200011D0020030225
:1029C0001078013218438A42F9D1704770B50D4C26
:1029D00025682B7A032B04D10B4BE018FFF7ECFF93
:1029E000606102232B71FFF7B1FF0123226813718D
:1029F00003335BBAD3800A22044BE250FFF7A6FFF1
:102A000070BDC046188CFF1F5A080000480800001F
:102A100010B5054B1B681A7A032A03D1023A1A71C2
:102A2000FFF794FF10BDC046188CFF1F10B5064B72
:102A30001B681B79012B04D0032B04D1FFF7E8FF9F
:102A400001E0FFF7C3FF10BD188CFF1FF0B5134C5A
:102A5000002A01D00023636301220A4003D000262C
:102A600043181D781E7003001E1AB14208D91E7843
:102A70005F7836023E43676B0233F6196663F3E70D
:102A8000002A00D04554636BA08E1B0CC31898B26B
:102A90001B0CC0186063C043F0BDC046188CFF1FFC
:102AA000002310B5064C01226068017843810907B4
:102AB000890EFFF7CBFF40BA6368588110BDC0464E
:102AC000188CFF1F034B5B68DA6819691A61D960BB
:102AD0007047C046188CFF1F37B50C4B02225C684C
:102AE00001A823781B079B0EE5180233E418290080
:102AF00003F080FF21002800022203F07BFF022266
:102B000001A9200003F076FF37BDC046188CFF1FD7
:102B10001FB50A4B5A6801ABD16801911169596020
:102B200000211972527A5A7240BA012258810C312E
:102B30001800FFF78BFF05B000BDC046188CFF1FC3
:102B4000F7B5FF251B4C0193266835702668FC3DC0
:102B500075701E356DBA0F27BC462668758065688E
:102B60002E783E4031373E432E70664665682D789C
:102B7000B5430A3E3543666835700F4EA5596B1C48
:102B8000A3516DBA636809BA9D806568089BAE79E8
:102B900000BA3743AF716568802629612900143176
:102BA0002E726B72E860A16052BAAA82019B5BBA76
:102BB000EB82F7BD188CFF1F980E000073B511242F
:102BC000079D0094FFF7BCFF2E002B000836134C26
:102BD0001C335BBA62680699538060682A00030060
:102BE0001C301433A36003F005FF73BAA2682235CA
:102BF00093800B4BE550FFF753FF3000FFF788FF42
:102C00000022A3683100DA80A068FFF71FFFA368E5
:102C100040BAD880FFF79AFE73BDC046188CFF1FDC
:102C200048080000F0B5334C85B0606805782D0782
:102C3000AD0E4019A06087887FBA05222E49083062
:102C400004F0B8F80600A068042208302B4904F00C
:102C5000B1F8002E01D000284AD1002E2BD1FFF769
:102C600031FFFFF739FFA06804222549083003F03F
:102C7000C1FEA3682349D81903F082FFC719ED19D3
:102C80006BBA626853807BBAA268063593801E4B8C
:102C9000E550FFF705FF3800FFF73AFFA368320061
:102CA000DE803900A068FFF7D1FEA36840BAD88063
:102CB000FFF74CFE1CE000281AD16368DA681B6934
:102CC00015BA1BBA0293A3681A8852BA03925E8897
:102CD00076BA0E4BE26AE7180D49380003F050FF50
:102CE00000970190039B320029000298FFF766FFCE
:102CF00005B0F0BD188CFF1F7ACC000080CC00001E
:102D000085CC00008ACC00004808000018090000AB
:102D1000A4CC000070B5114C63685E8876BA1D784B
:102D20002D07AD0E5A19A2601278082A15D11A7A09
:102D3000013A1A72FFF7C6FEFFF7B2FE0023A2683F
:102D4000711B1370A2685380A0680122FFF77EFEFA
:102D5000A36840BA5880FFF7F9FD70BD188CFF1FBB
:102D60000023F7B5009018000192019A904238DADA
:102D7000009C1D4D245C421CA610AE5D5F1CCE5411
:102D8000019E964224DD009D2401AA5C30252C4042
:102D900015112C43144D92002C5D3C252A40124DF8
:102DA000CC55AD5C9F1CCF193D70019D861CDC1C71
:102DB000B54211DD009D0330AE5D0433B5112A43E9
:102DC000094DAA5C3A703F221640AA5D0A55CCE72D
:102DD0009C1C3D231600CB553D22631C0A55300038
:102DE000C3E70022CA54F7BD14CF0000F0B537493D
:102DF000A9B0040004F0BCF9051E64D01235344EAD
:102E00002978300003F02CFF0196002801D000271C
:102E100006E00135F3E7292F0BD0EB5DBB550137F9
:102E200014AEF319E95D0198009303F019FF00282F
:102E3000F1D12849009803F081FF300003F086FFAC
:102E40003100020002A801F0A3FC142207A902A885
:102E5000FFF786FF2049200004F08AF9462201008E
:102E6000300003F0F3FF0D21300003F0F9FE0021E4
:102E7000FA2201705200200003F0FAFD17492000E9
:102E800003F07EFE16490500201803F079FE2D1888
:102E90006019144903F074FE2D18601907AA12492D
:102EA00003F06EFE2D1832006019104903F068FE21
:102EB0002D1860190E4903F063FE2D1860190D4995
:102EC00003F05EFE281829B0F0BDC046B7CC000064
:102ED00014CF0000CACC0000EFCC000006CD0000EB
:102EE00029CD00003ECD000054CD00006ACD000089
:102EF0006FCD000055CE0000F0B589B004000E0083
:102F0000FFF774FF051E00DD9EE011230D223360E4
:102F10004E49200003F04EFF062207004C492000D6
:102F200003F048FF637902900393E379A679049351
:102F30006019002F03D0029B4649002B00D146495F
:102F400003F01EFE2D186019444903F019FE2D18D8
:102F5000631918004249059303F012FE2D186019F9
:102F6000404903F00DFE2D1860193F4903F008FE9B
:102F70002D18002F07D160193C4A3D4903F03AFD56
:102F80003C4BEF1852E0039B6C2B33D16019374A4E
:102F9000374903F02FFD374BEF186C2E17D10498EB
:102FA0003138032842D8FDF7FBFA02040608324CF8
:102FB00004E0324C02E0324C00E0324C200002F0DF
:102FC0009BFA0121002800D0002120000FE0722E82
:102FD0002CD10121284802F06DFA0121274802F086
:102FE00069FA0121264802F065FA0121254802F01C
:102FF00061FA1BE0029B002B0ED12F00622E04D140
:103000006019214903F0BCFD2F18204BE019DA6A42
:103010001F4903F0B5FD08E01E49601903F0B0FD3B
:103020002F18E0191C4903F0ABFD3F187D1B052349
:103030001A4A0621009506A803F060FD052206A99C
:10304000059803F0D7FC380009B0F0BD88CD00002A
:1030500096CD0000CBCD00009DCD0000FDCD000041
:103060000ECE000016CE00002ACE0000D2020000D4
:1030700090C90000D1020000E48BFF1FB49AFF1F2B
:10308000168CFF1F148CFF1F58CE0000188CFF1FDA
:1030900080CE000084CE0000B2CE0000C9CE000079
:1030A000F0B5027885B005000C00812A28D1861C75
:1030B00003AF7D3A3100380003F09CFC6B787F2B26
:1030C00016D9A21F0192042252422B0094461448A2
:1030D00001995A1B91420BDD024003D56146013A2A
:1030E0000A430132B95C9A7901334A405A71EFE7D9
:1030F000A31E6B7004220B49300003F07BFC0BE035
:103100000023882A07D14278802A04D1062902D1D7
:103110004370043C00E01C00200005B0F0BDC04638
:1031200003000080CDCE0000F0B5504C87B062683F
:1031300057887BBA17789C463F07BF0ED319187B78
:10314000052506090F20A360596809BA03919968FB
:1031500009BA0191117881432943117000216268F5
:10316000518065682A00691C1432A260CA7F02403F
:1031700041300243CA77102205929622D20052BAF9
:103180006A84AA1CD17F19296DD8B20002926246C6
:10319000D71B029A3648BF1A039ABE1801228A40EA
:1031A00002422CD1334810400AD153075BD580220C
:1031B0001223520594460593039B6344019320E038
:1031C000102901D1002F4ED0029A2B4998180522C0
:1031D000283503F0EFFD002807D11823280005A9A2
:1031E0000593FFF789FE05000DE0280005AA3900C8
:1031F000FFF756FF051E06DD1823059303E0112394
:10320000059300250136FFF75DFCFFF765FCA36819
:1032100036BA9E60019BA2681BBA5360A268059BE8
:103220002E0053732B00143628335BBA62682E3598
:103230005380124BE5500025FFF732FC3000FFF7BA
:1032400067FCA0682A0005823100FFF7FFFB40BA47
:10325000A3681882FFF77AFBFA22094B5200E018A4
:10326000290003F005FC07B0F0BDC046188CFF1F15
:103270000200020200000101D2CE00004808000056
:103280007C08000010B5094B5B685B7A062B09D0FF
:10329000112B04D0012B07D1FFF73CFD04E0FFF711
:1032A000C1FC01E0FFF740FF10BDC046188CFF1FB6
:1032B00010B5084C0422236851BAD888884205D139
:1032C00002221A71FFF742FB012223681A71FFF7ED
:1032D0003DFB10BD188CFF1F062310B5044C22685F
:1032E0001371FFF733FB00232361FFF757FA10BD7B
:1032F000188CFF1F10B5094B1B681B79022B0BD0D4
:10330000052B04D0012B05D1FFF7D2FF04E0FFF716
:10331000E3FF01E0FFF7DEFA10BDC046188CFF1F87
:1033200010B50D4B1B681A78FF2A14D15A78032A5E
:1033300011D15B885BBA094A93420AD0084A93428A
:1033400004D0212B07D1FFF79DFF04E0FFF7D2FF48
:1033500001E0FFF76BFB10BD188CFF1F2180000000
:1033600021C00000F0B591B005000191884240D025
:10337000214C224B224EA3610023A35100938523AD
:103380001B01E718009B002B0DD1631938331A7805
:103390007D2A18D03A70A25901370132A25118780B
:1033A000FFF756FA11E02021631938331A784A40A2
:1033B0003A70A25901370132A25118784840FFF7FC
:1033C00047FA002300E0012300930135019B6D05BE
:1033D0006D0DAB42D6D10B4B228BE2500A4B9A4279
:1033E00002D1FFF79DFF04E0A359084903A803F0A9
:1033F000C7FB11B0F0BDC046188CFF1FFFFF0000D7
:10340000480800004C080000B8F00000D8CE0000CA
:10341000F8B5144C144F2500E659144AAB58B34282
:10342000FCD0FFF741FA7E28F3D1236B002B09D0A3
:103430008422E3591201A350E9221201A350002370
:103440002363E6E70A4B3100EE50043BE858FFF7F0
:1034500089FF8422044B1201EB58AB50E922120180
:10346000AB50F8BD188CFF1F3C0800003808000066
:10347000940E0000F8B50126094C23692500002BA5
:103480000DD1084F38353900280003F071FE0028AF
:10349000F9D00549054802F03FFD2661ECE7F8BD8B
:1034A000188CFF1F00CF000007CF0000E88BFF1F24
:1034B0001FB5C82002F0ABFFFFF770F9E1210D4CFA
:1034C0004902200002F05CFD10220021684603F052
:1034D000CFFA094B00220093084B69462000039362
:1034E00002F0E0FD039B002B02D09B6868469847E2
:1034F0001FBDC046E88BFF1F2127000084C90000C4
:1035000010B50400FFF740F9200002F0DAF92000BE
:1035100010BD0000962310B5114C9B01114A1249B1
:10352000200002F0CDFC20000024104A104902F0D7
:10353000B1F910481049048002F065FC0F481321CE
:10354000048002F060FC0E481221048002F05BFC53
:1035500080210C484901048002F055FC10BDC04692
:10356000E88BFF1F06200000072000000082FF1FDD
:1035700089270000E48BFF1F01200000B49AFF1F81
:10358000168CFF1F148CFF1FF0B507001B26A7B079
:10359000402216A803F02EFA39680225F141169B45
:1035A000BA681BBA0593FB68FE485A407B681A400C
:1035B000FB685A403B691B18CB18D318059AB868AA
:1035C000D4187A68179BEA411BBA09933B685040AC
:1035D0001840BB68F3495840FB685B18C018099B4A
:1035E0001100C0182300F34118183B68EB41019308
:1035F000189B1BBA0A93019B594021405140BB685C
:103600008C46E849EC4159180A9BC9180300F3415C
:1036100061449C460B0063440293199B01991BBAB9
:103620000B93019B634003404B409C46DD4BE841BC
:10363000D2180B9BD218029B6244F3419C461A9B02
:1036400062441BBA1193029B84466040184060405C
:103650000100D44B0198C31811981B18CB1802997C
:103660001000E94101911B99F04109BA129161469C
:10367000C3180198414060461140EA41414002911F
:103680001298C84940180299001909181800140026
:10369000F0411C9A411812BA1392019A01986240A3
:1036A0001A40EB41424002921398BE4A801860448F
:1036B0009C46029A1D9B121808001BBA149363467D
:1036C000F04163400B40634002938018B54B149A5D
:1036D000E941D218019B0191D218029B61469B18C7
:1036E0000200F241D3181E9A12BA0C92019A51406C
:1036F00062460140514002910C9AAA49E841521891
:103700000299121989181A00F241521802921F994F
:10371000040009BA0D910199A24A41401940EB41B8
:10372000019841400D98801860449C46209B0918E0
:103730001BBA02980E936346F041029A6340401808
:10374000134098490E9A63405118019A89185B18E2
:103750000100F141C918219B029A1BBAEA410F935B
:1037600063460292534062460340534001930F9ACE
:103770008C4BE841D218019B12199B180A00F241A8
:103780000400D3180393229B02981BBA1093604045
:10379000029B08405840834A109BE9419B186344B0
:1037A000C018039B239AF3411B18080012BA019218
:1037B000039A60408C4610407A49019A6040511843
:1037C000029A891840181900F1410A180492039AC4
:1037D0006046EA411100249A12BA029262464A40B7
:1037E0001A404240039202986E4AEB418018039AB5
:1037F0000019121804980693F041259B80181BBAF3
:10380000069A0393049B4A401A40664C039B4A4025
:103810001B196344D2180300F3419B189C46049B78
:103820001F24EB410A9A0793059B53400C9A53407F
:10383000019A5340E341079A0493069B5340069A2A
:10384000034053400593049A564BE841D21852184E
:103850006146F141059B08909B18C9180B9A099B7A
:10386000079853400D9A5340029A5340E341059301
:10387000089B4C4A584063461840079B5840059B9C
:103880009B18069A9B18C0180A006346F241EB4148
:10389000121809930A98119B58400E9B5840039B9D
:1038A0005840E041099B069008985840089B084002
:1038B00043409C463B48069BE9411818079B0A91E8
:1038C000C0181300F3410B9960449C46129B60445E
:1038D00059400F9B5940049B5940E141099B079176
:1038E0000A99594011404B4007990B938C462D4B38
:1038F000EA4163449C46089B9C440B9B0B926344A7
:1039000019000300F341119A9C46139B61445A40ED
:10391000109B5A40059B5A40E24108920B9B0A9A21
:103920005A4042401192089A1F4B944663449C4669
:10393000099B119A6344D2180B00E841F341844675
:103940009B181498129A119342400198164B4240CA
:1039500006984240E241099262460B985040099A0B
:103960004840D2180A9BE941D2188018119A0C9B42
:10397000F2411018139A12915A40029B61465A4024
:10398000079B5A40E241129B0A925940119B5940B1
:103990001300054A9A180B9BD21889180200119B34
:1039A00004E0C0469979825AA1EBD96EF241EB410D
:1039B000521811930D99149B4B4003994B40089951
:1039C0004B40E3410B93129B11994B40434013939F
:1039D0000B99FE4BE841C918139B61445B18110019
:1039E000F1418446CB180E980C99139341400498EA
:1039F000F64B414009984140E1410C9161461198D4
:103A000048400C995040C918EA41129B1292C918BB
:103A1000401813990D9AF1410F9B08185A40059BC5
:103A200061465A400A9B5A40E241129B0D9259400E
:103A3000139B59401300E54A9A18119BD218891814
:103A40000200139BF241EB4151181193109A0E9B07
:103A50005340069A53400B9A5340E3410E93129BF6
:103A6000119A5340434013930E9AD84BE841D21811
:103A7000139B62449B180A00F2418446D3180198B4
:103A80000F9A139342400798D04B42400C98424003
:103A9000E2410F926246119850400F9A4840D21866
:103AA000E941129B1291D2188018139A1099F24191
:103AB000029B12185940089B604659400D9B594083
:103AC000E141129B10915840139B58400B00BF4995
:103AD0005918119BC91840181100139BF141EB4173
:103AE000091811930398019B4340099843400E988D
:103AF0004340E34111980193129B43405340139379
:103B00000198B24BEA41C018139B60441B1808008F
:103B1000F0419446C018029A049B5A400A9B5A40AE
:103B20000F9B5A40E24102926246119B53404B4028
:103B30001393029AA54BE941D218129B1291D21805
:103B4000139B05999B180200F241D218039B4B402E
:103B50000B994B4010994B40E34161460393129BF4
:103B6000594041401391039B9849E8415B181199D2
:103B700011905B1813990698C9181300F34159184E
:103B8000049B43400C98434001984340E341119803
:103B90000493129B43405340139304988B4BEA4188
:103BA000C018139B60441B180800F0419446C018CD
:103BB000079A059B53400D9A5340029A5340E341A4
:103BC00005936346119A5A404A401392059B7F4AD7
:103BD000E9419B18129A12919B18139A0899D218CE
:103BE0000300F3419B18069A4A400E994A400399F4
:103BF0004A40E2410692624612994A40424013927C
:103C00000699724AE8418918119A8918139A1390F3
:103C100052181900F1418A1809981192079A6B49B4
:103C200042400F98424004984240E2411298079265
:103C3000139A50405840EB41079A14935218089B2E
:103C40000A9962444B40109980184B400599119A8B
:103C50004B40E341F24108931218149B13985B49BF
:103C60005840119B5840089B5B1812995B18C0186C
:103C700013001199F341E9411B1811910B9809990F
:103C800041400198414006984140E1411198099115
:103C90001499414051408C4609984C49EA414018DA
:103CA00013991292401801001800F0416144411824
:103CB0008C460A9A0C9945484A4002994A4007990D
:103CC0004A40E24111990A92129A51405940EB41FF
:103CD0000A9A13931018149A0D9B80180B9A0918BE
:103CE0005A40039B60465A40089BF0415A40E241CB
:103CF000129B0B92139A401853406246334953402B
:103D00000B9A5118119A891859180300F341591840
:103D10006346EB410C9A11930E9B5A40049B5A4008
:103D2000099B5A40E2410C920200119B1A43139BDB
:103D30001340119A02401A4314920C9A244B944651
:103D400063449C46129BE8419C44149B129063443C
:103D50001A000B00F3410D989C460F9B624458409B
:103D6000059B58400A9B5840E0410D901298119BCA
:103D700008431840129B0B4003439C4614480D9B7C
:103D8000E9411818139B1391C0181300F3410E99C1
:103D900060449C46109B60445940069B59400B9BD5
:103DA0005940E1410E911399129B11430B40139915
:103DB0001140194314910E99054B8C4663449C465F
:103DC000119B14996344C918030003E0A1EBD96E59
:103DD000DCBC1B8FEA41F34194465B180F9A0199B2
:103DE0004A4007994A400C994A40E2410F92624684
:103DF000139902430A40614601400A4311920F9908
:103E0000FE4AE8418918129A8918119A119052189D
:103E10001900F14102988A181099414008984140D0
:103E20000D984140E14110916146119818430840B6
:103E300011991940084312901099F048EB41091864
:103E4000139809181298129340181100F141019B20
:103E5000091803984340099843400E984340E341B2
:103E60000193129B1198134303401298104003438F
:103E700013930198E14BEA41C018139B60441B184F
:103E80000800F0419446C318029A049842400A98E8
:103E900042400F984240E2410292624612980A4321
:103EA000024060460840024313920298D34AE94117
:103EB0008018119A11918018139A059912181800F8
:103EC000F0418018039A4A400B994A4010994A40A1
:103ED000E24161460392119A1A430A40119919402E
:103EE0000A4313920399C54AEB418918129A129317
:103EF0008918139A049B52180100F1418918069AF7
:103F000053400C9A5340019A5340E3410493129B4F
:103F1000119A03431340129A024013431393049AD5
:103F2000B64BE841D218139B62449B180A00F24139
:103F30008446D2180798059B43400D984340029849
:103F40004340E3410593634612980B4303406046A8
:103F50000840034313930598A84BE941C018119BEF
:103F60001191C018139B1B181000F041C018069B3C
:103F700008994B400E994B4003994B40E3410693FF
:103F80006346119911431940119B13401943139132
:103F9000069B9A49EA415B18129912925B18139991
:103FA000079AC9180300F3415B1809994A400F9911
:103FB0004A4004994A40E24112990792119A0143FA
:103FC0001140129A024011431391079A8B49E8411C
:103FD00052181399624489181A00F2418446521803
:103FE0000A98089941401098414005984140E141A4
:103FF00060460891129918430840614619400843E9
:10400000139008997D48EB410918119809181398E5
:10401000119340181100F141099B09180B98434076
:104020000198434006984340E34109936346119841
:1040300010431840119B134018431390099B6F487D
:10404000EA411B18129812921B1813980A9AC0186A
:104050000B00F3411B180C9842400298424007980D
:104060004240E2410A92129A11980A430240129881
:104070000840024313920A98604AE9418018139A53
:10408000604412181800F0418C4680180D990B9A64
:104090004A4003994A4008994A40E2410B926246DD
:1040A00012991A430A40614619400A4313920B9928
:1040B000524AEB418918119A8918139A1193521890
:1040C0000100F1410C9B89180E9A5340049A534009
:1040D000099A5340E34162460C93119B03431340FA
:1040E000119A0240134313930C9A444BE841D2189F
:1040F000129B1290D218139B0F989B180A00F24142
:10410000D3180D9A4240059842400A984240E24135
:1041100012980D92119A08431040129A0A401043C7
:1041200013900D9A3548E94112181398624480188B
:104130001A00F241139112180E99109841400698F6
:1041400041400B984140E14113980E911299184358
:10415000084013991940084384460E992748EB41BB
:10416000091811980918614408001100F141091853
:1041700011910F9801994840079948400C9948407F
:10418000E0410F90100013991843084019001140A6
:1041900001438C4619480F99EA4108181299149264
:1041A00040181199109AF14160448C46029960447C
:1041B0004A4008994A400D994A40E2411092149AA7
:1041C00011995A405140109A129194460C49139AF1
:1041D00061448C460100F1419444129A62448C4639
:1041E00011996244E94113921591039A0199514042
:1041F000099A51400E9A514004E0C046DCBC1B8F26
:10420000D6C162CAE141159A1191149951404140B9
:1042100001911199FD4A8C4662449446019A634487
:10422000D118139B049AF3415B180299E84151405D
:104230000A9A844651400F9A5140E14112911599D2
:10424000139A41405140F148129A1018149A80185C
:1042500009181800139AF041EA4140180292059992
:10426000039A4A400B994A4010994A40E24103920E
:10427000624602994A405A4001920399E34AEB414F
:104280008918159A14938918019A049B52180100F1
:10429000F1418A1813920699DC4A4B400C994B4025
:1042A00011994B40E341029916930493149B594092
:1042B000049B41409B186344C918139B079AF34120
:1042C0005B180599E84151400D9A15905140129A9A
:1042D0005140E14116AA01920A00059101994A60F4
:1042E0001499139A41405140059AC8489446604435
:1042F00084461800029AF0419444139A0295EA41C8
:10430000614415008446069A0898614442400E981C
:10431000424003984240E241019806928260159A19
:10432000BA486A405A409446069A121814981218CD
:104330000800F0416244844694440222D341079A23
:104340001393099BB1485A400F9B5A40049B5A4013
:10435000E24113000792019AD3602A00139B5A404E
:104360001300079A4B401218159812189A186346B2
:10437000F3419A180223D9410A9B14910899A34842
:104380005940109B5940059B5940E1410B00089151
:1043900001990B61149B1399594063465940089B3E
:1043A0001B185B19C9181300F34102205B18614602
:1043B000C1410B98159109994140119841400698C7
:1043C0004140E1410198099141611499099D159875
:1043D000AC4641408D485140604484461398844423
:1043E0001800F041614484460220C2410C981392A7
:1043F0000A9A614442401298424007984240E24182
:104400000A920A9D0198AC468261159A139842401F
:104410007E485A4060448446149884440800F04121
:10442000624484460220C3410D9814930B9B62445E
:1044300043400398434008984340E3410B930B9D4E
:104440000198AC46C3611498139B43406F484B409E
:1044500060448446159884441000F04163448446C7
:104460000220C1410E9815910C9963444140049873
:10447000414009984140E1410C910C9D0198AC46A6
:104480000162149915984140604851406044844647
:10449000139884441800F041614484460220C241CC
:1044A0000F9813920D9A61444240059842400A9831
:1044B0004240E2410D920D9D0198AC464262139834
:1044C000159A424051485A406044844614988444A6
:1044D0000800F041624484460220C34110981493BE
:1044E0000E9B62444340069843400B984340E3418F
:1044F0000693069D0198AC4683621498139B434033
:1045000042484B4060448446159884441000F04172
:10451000634484460220C1410E9111980F9963446F
:104520004140079841400C984140E1410791079D67
:104530000198AC46C1620E981499414033485140ED
:1045400060448446139884441800F04161448446D2
:104550000220C24112980C92109A6144424008987D
:1045600042400D984240E2410892089D0198AC46B5
:1045700002630C980E9A424024485A406044844694
:10458000149884440800F041624484469444022212
:10459000D341039A1D00119B1C485340099A534074
:1045A000069A5340E341019A53630C9A1B180E98E4
:1045B0006A404A401B18D3186246F241D31806934A
:1045C0000223049AD941129B60465A400A9B5A40E2
:1045D000079B5A40E241019B9A632B004B404340AA
:1045E0000A4812180C9812189A18069B0220F341D8
:1045F0009B186246C24103989446059A42400B9824
:10460000424008984240E241019801E0D6C162CAA6
:10461000124CC26338680419A218644606984C40CC
:104620004440521912191C00F44112193A607A6878
:10463000D3187B6002220300D341BA6801989B180B
:10464000BB60FB6840226344FB603B695B183B61D5
:10465000002102F00DFA27B0F0BDC046D6C162CAF3
:10466000064B0360064B4360064B8360064BC360FA
:10467000064B036100238361436170470123456753
:1046800089ABCDEFFEDCBA9876543210F0E1D2C39C
:10469000F8B505004069D3001B180F0016006B61C8
:1046A000984202D9AB690133AB61AA69730FC005A7
:1046B000D318800EAB61331800243F2B17D9403438
:1046C000241A281839001C30220002F093F929001E
:1046D00028001C31FEF758FF23003F339E4205D9C6
:1046E00039192800FEF750FF4034F5E7002028185C
:1046F000321B39191C3002F07DF9F8BD0023F0B5EA
:1047000007000C001800032185B002AE0200994298
:1047100042410D0004329200A2189D435268ED0000
:10472000EA409A550133082BF0D16B46DD1D8023FA
:1047300001222B7029002000FFF7AAFFFC226369E9
:1047400052001340383A934204D00023C03A2B70F1
:10475000FF3AEFE7200008223100FFF799FF00231E
:10476000032001009A08920099431259C900CA40D7
:10477000FA540133142BF4D15C220021200002F002
:1047800077F908220021300002F072F905B0F0BD7F
:1047900070B598B00C001500060001A8FFF760FF87
:1047A0006519AC4206D02100012201A8FFF770FF75
:1047B0000134F6E701A93000FFF7A0FF18B070BD83
:1047C00010B5FEF775FEFEF723F8FEF753FEFEF771
:1047D00039F80028F9D0FEF71BFEF8E7064B9A7966
:1047E000D20702D4054B186870471B7A044A1B078E
:1047F00010685B0FD840F7E7004006400882FF1FB3
:104800000482FF1F10B50B4B1B7BDB0709D40A4B3F
:10481000186800280DD1C721084B094A094801F042
:104820002FFE094B1868002803D1084B044ACC21FD
:10483000F4E710BD00400640649CFF1FB8CF0000A5
:1048400062D00000C4CF0000609CFF1F55D0000064
:1048500010B5FFF7D7FF002811D00C490B784A7824
:104860009B06097B5B0F9206D840C9B2920F06D017
:10487000CA0704D4062B03D0072B05D0400910BD6E
:104880001421FBF797FEFAE70C21FAE700400640F7
:10489000104B10B51B681B039B0F022B0BD0032B77
:1048A00014D0002B05D10C4A1068802212029042CD
:1048B00000D0002010BD094B18680028FAD15621FD
:1048C000074B084AFF31084801F0DAFDFA20800062
:1048D000F0E7C04600700440649CFF1F609CFF1F0F
:1048E00055D0000079D00000C4CF00004168074ACD
:1048F000074BD150C378C0209B04000311680340CC
:10490000044801400B4313607047C04600700440E8
:1049100044100000FFFFF3FF10B50E4C63789B07B7
:1049200001D5002010BDA379DB060FD4FFF790FF5F
:104930000028F6D0E378E2785B069B0FD2095B0093
:104940009B18054A5B009B5A5843EBE7034B1868DA
:10495000EEE7C046004006409ED000000882FF1FE0
:1049600010B50A4B9B791B079B0F012B08D0002B1E
:1049700003D0022B07D0002001E0FFF7CDFF10BDD0
:10498000FFF72CFFFBE7FFF73DFFF8E7004006408D
:10499000044B10B51B7800209B0701D5FFF71EFFC5
:1049A00010BDC0460040064010B50A4B9B79DB069F
:1049B00007D4FFF74DFF0400002C05D10024200090
:1049C00010BD054B1C68F7E7FFF7CAFFC008A042FF
:1049D000F4D3F4E7004006400882FF1F70B50A28B0
:1049E00035D8FBF7DDFD060610101D2920232634DF
:1049F0003600FFF7B5FF184B184AD158090F01319F
:104A0000FBF7D8FD70BD154D134CFFF7A9FF2959D1
:104A1000090F0131FBF7CEFD29594903490FEEE794
:104A2000FFF736FFEEE7FFF7BFFFEBE7FFF7B0FF5B
:104A3000E8E7FFF771FFE5E7094B18680028E1D1C7
:104A4000A821084B084AFF31084801F019FD002051
:104A5000D8E7FA208000D5E7441000000070044039
:104A6000649CFF1FB8CF00008FD00000C4CF0000AF
:104A7000012110B50D4B1C7B1A7B0C408A43014071
:104A80000A431A73002806D15A78520703D5022226
:104A900099791142FCD0844203D0054B013B002B95
:104AA00001D1002010BDC046F8E7C04600400640D6
:104AB000DD05000070B51C4B9C799E791D7A24079A
:104AC0002D07A40FF6B26D0F954209D0F5071DD43E
:104AD0000E261D7A520032402136B5432A431A72FF
:104AE00001255A78AA430D402A4303255A701A78A3
:104AF000AA4302431A70012C01D0820704D5012079
:104B00009A7902408A42FBD1002070BD012C02D06C
:104B10001D78AD07DCD501255E78AE435E709E79C9
:104B20002E42FCD1D4E7C0460040064002680E4940
:104B300010B500238A4204D90C4B93429B415B423F
:104B4000013330240A4A1B015178007923400C3488
:104B5000A14301430B435370002803D002239179F2
:104B60001942FCD010BDC0469798000000127A0090
:104B700000400640F7B51B4C01920D00E178A67984
:104B8000C9B20027F20604D52026E7787E40012727
:104B9000E6702678B446C6003820624606403538AE
:104BA0001040064310202670A6790642FCD1002F43
:104BB00000D0E1701F2008406021019A52010A4094
:104BC000E90111430143C9B2E170E2789142FCD19D
:104BD0000321A27992080A42FBD1002B00D098470A
:104BE0000020FEBD0040064070B515001E000C0000
:104BF000FFF73EFF32002900049B2000FFF7BAFFB9
:104C000070BD0000034B013B002B00D17047C04634
:104C1000F9E7C04631750000174B184970B5CA58FE
:104C2000174B1204120F05D1E0201C6B1D6BC00046
:104C3000284318631348144E05682E4080256D00E4
:104C40003543056080259E6AAD0535439D6280250C
:104C50006D0406682E42FCD0002A0BD180220B483E
:104C600052050D582A430A500C220949886802430C
:104C70008A601C6370BDC0462410000000700440B0
:104C8000FC90054000900540FFF0FFFF3810000049
:104C9000C0C2054013B5FFF7BFFF114C80212000B3
:104CA000104B114AC902D1501030FFF73FFF0F4B94
:104CB0000F4A05211A6000220E4B100000930123B9
:104CC000FFF792FF002201210220FFF7F3FE2000F0
:104CD0000830FFF70BFE084A084B1A6013BDC046A8
:104CE000B0D000004410000000700440649CFF1F1E
:104CF0000048E801054C0000005A62021082FF1FC4
:104D0000036810B5002B03DA024B1B68984710BDEF
:104D1000014BFAE7C09AFF1FC49AFF1F074B10B55B
:104D20001968002905D1064B064A0749074801F0D2
:104D3000A7FB0748FFF7E4FF10BDC046B89AFF1F66
:104D400082D10000A2D100004E060000F2D0000087
:104D500000C00240074B10B55968002905D1064B29
:104D6000064A0749074801F08BFB0748FFF7C8FFD1
:104D700010BDC046B89AFF1F92D10000B8D1000004
:104D800056060000F2D0000000D0024070B50028A6
:104D900006D1CE21234B244A8900244801F070FB20
:104DA0008268017CD177C3680468002B05D1002C90
:104DB00003D001224168A04725E0490152181C4D4B
:104DC0001C495118521909681588802215402A007B
:104DD000561EB241C91AD2B24909002D14D0437CE3
:104DE000C9B25BB2994215D1C57C067D0023AE42A3
:104DF00001D1C37C5BB249B24174C17CC91A49B2CA
:104E0000C174002CD6D170BD002901D00139E6E76C
:104E1000017DFBE7437C5BB2CB1AECD5057D6DB21F
:104E20005B19E8E7CED1000093D2000003D2000066
:104E30001C1000001810000010B5024B1868FFF796
:104E4000A5FF10BDC89AFF1F10B5024B5868FFF7A9
:104E50009DFF10BDC89AFF1F10B5024B9868FFF761
:104E600095FF10BDC89AFF1F10B5024BD868FFF719
:104E70008DFF10BDC89AFF1FC37810B5DB0602D4A2
:104E800083789B0603D5034B1B68984710BD024BE4
:104E9000FAE7C046E09AFF1FE49AFF1F10B5034BE4
:104EA00003481968FFF7E8FF10BDC046D89AFF1FF6
:104EB0000060064010B5034B03485968FFF7DCFF5C
:104EC00010BDC046D89AFF1F00700640054B10B5B4
:104ED000984205D0044B054A4621054801F0D0FA16
:104EE000002010BD00000440A2D2000061D30000E9
:104EF000C9D2000070B505000C1E05D1174B184A29
:104F00004D21184801F0BCFAFFF7E0FF0123164AD3
:104F1000082011680B4313600222E1782378914046
:104F20005B001340921811400B43A178C900014067
:104F30000B4361782830914001400B4378212B606E
:104F4000A379DB000B40217989000A400321134338
:104F500062790A4013436B6070BDC0465AD30000AB
:104F600073D30000C9D200003880044010B5002877
:104F700005D1084B084A6521084801F081FA002351
:104F80000122037043708370C37002714271837198
:104F900010BDC0465AD300007ED30000C9D2000025
:104FA000054B10B5984205D0044B054A8B210548A6
:104FB00001F066FA002010BD0040054095D30000C6
:104FC00070D40000D9D30000F0B589B004000F1EE2
:104FD000059205D1E221524B524A534801F050FA52
:104FE0000E68002E03D1514B4E4AE321F5E7B30082
:104FF00004930423009300230396029306930499D9
:105000000598FBF7D7FA85B2002D00D1013500993C
:1050100005986943FBF7CEFA0099831B01936B1C3B
:10502000594305980793FBF7C5FA019B301A834251
:1050300002D96B469D8B0190019B039A934203D842
:105040000393009B06950293009B01330093049BFE
:105050009B190493009B212BD1D164213000FBF7D5
:10506000A9FA03235843039B834256D82000FFF735
:1050700097FF80232E4A5B0311680B431360A368DC
:105080002C4A1340029AA360043A2368032A02D8E8
:10509000802292021343F821274A49051A40029BB5
:1050A000013B1B060B401343069A5B0BD204D20C48
:1050B0005B03134323602368204A134013222360B9
:1050C000A36893433A791343002A01D01022134373
:1050D0008021A360FB7989015B0322680B4018499A
:1050E0000A4013432360BB79002B14D1154B62682F
:1050F000134363603A7AA368002A02D08022120325
:1051000013437A7A002A02D08022D202134300206D
:10511000A36009B0F0BD0C4BE9E70C48F9E7C046C5
:105120005AD3000083D40000D9D30000BDD30000BF
:1051300038800440FFFFF3FFFFFFFFE0FFFFFFDFCA
:10514000FFDFFFFF00C01FC000C01FE021050000FF
:1051500010B5002806D1B021084B094AFF31094893
:1051600001F08EF9E1235B020360002303714371B8
:105170008371C3710372437210BDC0465AD30000DD
:105180008FD40000D9D30000F0B589B006000D1E01
:10519000059206D1E121314B314A4900314801F0F5
:1051A0006FF98B0004930023042703910293069365
:1051B00004990598FBF7FEF984B2002C00D1013464
:1051C000390005986143FBF7F5F9431B0193631C14
:1051D0001900059879430793FBF7ECF9019B281A0E
:1051E000834202D96B469C8B0190019B039A9342A8
:1051F00002D8039302970694049B01375B1904932A
:10520000212FD5D164212800FBF7D4F9032358437B
:10521000039B834220D2B2681349B3680B400299C2
:10522000B36004393368032902D8802189020B4313
:10523000F8200E4940051940029B013B1B06034024
:1052400000200B4306995B0BC9045B03C90C0B439D
:105250003360B26009B0F0BD0548FBE7C5D300007C
:10526000A7D40000D9D30000FFFFF3FFFFFFFFE04A
:105270002105000010B5C02402680B02240223405F
:105280001343FF220360836891431943816010BD7B
:1052900010B5C02403680A02240222409343FF226F
:1052A0000360836891438B43836010BDC022036811
:1052B00080681B0A1340024A104018437047C046DA
:1052C00000C0F00F406870474268CB0F5200520890
:1052D000DB071343084A1A40084B0B401343084AA4
:1052E0001340C02212020A40134343604068084042
:1052F00000D004487047C046FFFFE0BF00001F40D9
:10530000FF3FFFFF1A050000F8B5002909D08025EE
:1053100080260B008A182D03F60293422AD1002022
:105320000DE01A4B1A4A1B491B4801F0A9F84468C2
:105330002C4205D080210903FFF7C6FF1748F8BDAE
:10534000344205D08021C902FFF7BEFF1448F6E7BA
:1053500061460C4205D080218902FFF7B5FF114854
:10536000EDE7802149020C4209D0FFF7ADFFA420F0
:10537000C000E4E78021802789028C46BF03416892
:105380003942D4D0C16819700133C6E76BD400002C
:10539000BAD400007D020000D9D300001D05000032
:1053A0001E0500001F05000010B5034B034A1B68D3
:1053B00011680348984710BDEC9AFF1FE89AFF1F39
:1053C00000400540054B10B5984205D0044B054AF6
:1053D0004621054801F054F8002010BD007003403C
:1053E000CED4000082D50000F3D4000070B50400D4
:1053F0000D1E05D10E4B0F4A4D210F4801F040F80C
:10540000FFF7E0FF80230D4A1B0411680B43136074
:105410000222236893432A7823600123002A03D0C1
:1054200022689A43226070BD226813432360FAE722
:105430005AD3000092D50000F3D400003C80044011
:1054400010B50B0001804A1C03D00121180000F0A8
:105450005FFA10BD10B50023C05E00F091FA10BDD8
:105460000022835E70B505000C00013304D13122A7
:105470000D490E4800F08EFE0022AB5E0C4AD8B2F9
:105480001B139B009B58002C02D0012C06D070BD32
:10549000012181405A698A435A61F8E784405A6978
:1054A00014435C61F3E7C046C0D50000A8D50000F6
:1054B0009CD500000022835E70B505000C0001330E
:1054C00004D1422209490A4800F064FE0022AB5E82
:1054D000084AD9B21B139B009A580123E4B28B40AF
:1054E000002C01D1936070BD5360FCE7C0D5000073
:1054F000A8D500009CD500000022835E10B50400F2
:10550000013304D14B220849084800F043FE002231
:10551000A35E07491A1392005258DBB21069D840B3
:105520000123184010BDC046C0D50000A8D500001A
:105530009CD50000F7B500F0F1FE164901A800F077
:1055400062FC962501260424310001A8FFF7B2FF72
:10555000280000F05CFF002101A8FFF7ABFF013C31
:10556000280000F054FF002CEED1C82704347F003F
:10557000310001A8FFF79EFF380000F048FF00212E
:1055800001A8FFF797FF013C380000F040FF002C16
:10559000EED1D8E70120000070B50D000400A0B0E6
:1055A00000F0BCFE2B0022008021684604F0ACFA1B
:1055B000051E03DC00F0E0FE20B070BD094B0A4E72
:1055C0001B68002B04D1094A0949300000F02EFA6B
:1055D00000246B463000195D013400F031FBA54218
:1055E000F7D1E7E7009CFF1F689CFF1F0620000023
:1055F000072000000FB407B504A901C90191FFF706
:10560000CBFF03B008BC04B0184710B5FFF742FB4E
:1056100010BD000007B5024901A800F0DAFB07BD84
:1056200012100000084B10B51B68002B0AD1074C64
:1056300007492000074A00F0F9F996212000890166
:1056400000F06AFA10BDC046009CFF1F689CFF1F57
:10565000072000000620000010B5022801DC002011
:1056600010BD002103380B4A830098589950884296
:1056700006D100F025FF0923036001204042EFE737
:1056800003685B699847041EE9DA00F019FF644279
:105690000460F2E7F09AFF1F70B50D0014000228B5
:1056A0000EDC134B1B68002B01D1FFF7BBFF2E193B
:1056B000B54211D029780F4800F0C2FA0135F7E75A
:1056C00003380D4B8000C058002807D100F0F8FEC9
:1056D0000124092364420360200070BD0368DB6875
:1056E0009847041EF8DA00F0EBFE63420360F3E72C
:1056F000009CFF1F689CFF1FF09AFF1F10B50C0055
:1057000002280CDC114B1B68002B01D1FFF78AFF2C
:105710000F4800F065FA20700124200010BD033806
:105720000C4B8000C058002806D100F0C9FE0124AF
:10573000092364420360F0E703689B689847041EEE
:10574000EBDA00F0BDFE63420360E6E7009CFF1F5A
:10575000689CFF1FF09AFF1F10B50124022809DD85
:1057600003380B4B8000C458002C05D100F0A8FE74
:1057700009230360200010BD23682000DB699847DF
:10578000041EF7DA00F09CFE644204600024F1E796
:10579000F09AFF1F10B5022807DC00F091FE1D23D0
:1057A000036001246442200010BD0338094B8000CF
:1057B000C058002803D100F083FE0923F0E70368F6
:1057C0001B699847041EEEDA00F07AFE644204601A
:1057D000E7E7C046F09AFF1F70B50C00022804DC12
:1057E00080239B014B6000200BE003380E4B8000B0
:1057F000C558002D06D100F063FE09230360012087
:10580000404270BD2B682800DB6998478023002840
:1058100007D11B0263602B6828009B6A98472061B0
:10582000E1E79B01F6E7C046F09AFF1F0C4910B56F
:105830000B681818EFF30882904205D30C22012060
:10584000084B40421A6010BD074A1468002C04D06F
:10585000064A126812199042F0D208601800F2E766
:105860000C82FF1F6C9CFF1FF09BFF1FF49BFF1F10
:1058700070B5074C05002368986800F0E5FE2368C2
:10588000D86800F0E1FE002D01D0FFF753FEFEE7DF
:105890004086FF1F0120704710B5FFF7E9FF012088
:1058A00070477047704710B5FFF7FBFF10BD10B58C
:1058B000FFF7F8FF10BD10B5002801D001F048F83F
:1058C00010BD10B5FFF7F7FF10BD7047704700001F
:1058D000064A0749936830B51800CC1AC0301D68D5
:1058E000E55004338342FAD1916030BD00ED00E011
:1058F0000080FF1F10B5FFF7EBFFFFF786FEFFF7F5
:10590000E5FF10BD10B5FFF7E0FFFEF759FF10BD32
:10591000F0B5050085B00C00431C04D11A221249D1
:10592000124800F037FC01AB1900114A2402C1CA29
:10593000C1C12A139200D0580E4B010CC918012383
:1059400080B283400E68EDB233430B600A4BAD006A
:10595000D358E0225D19D2002B681440074A134047
:105960001C432C6005B0F0BD3FD60000ADD5000053
:10597000F8C8000000700440BCD60000FFF8FFFF2C
:1059800070B504000D00431C04D124220F491048B7
:1059900000F000FC23130F4A9B009B58E4B2A400C4
:1059A0001C192368012D08D0002D03D0022D09D029
:1059B000236070BD084A1340FAE7084A13400222E8
:1059C0001343F5E7064A13400322F9E73FD60000E8
:1059D000ADD50000BCD60000FCFFFFFEFEFFFFFEC1
:1059E000FFFFFFFE80210E4870B54568436809033C
:1059F0000B4202D0C368FFF767FC0A4C20680028FE
:105A00000CD02B0203D5084B01211B689847AB0231
:105A100004D5054B00211B682068984770BDC0461F
:105A200000400540FC9BFF1FF89BFF1FF0B50D00D9
:105A300085B007002E492800140000F023FA2D49F4
:105A40000600200000F01EFA0100300000F0FCF912
:105A50003860431C04D130222749284800F09AFBC3
:105A600027492848284A435801AE1A4080231B057D
:105A7000134343503000FFF76BFB96239B010193C8
:105A80000023052033727372FEF7A8FF3100020075
:105A90001E48FFF799FA1649280000F0B9F9154990
:105AA000200000F0B5F9194E6B1C08D08023B268B5
:105AB0001B031343B36002212800FFF761FF631C3F
:105AC00008D08023B268DB021343B36002212000B8
:105AD000FFF756FF3B68002B07D101220C4B390022
:105AE0001A600C48033200F085FF05B0F0BDC046D7
:105AF00088CF000058CF0000C8D6000052D7000061
:105B00000410000000700440FFFFFFF30040054058
:105B1000009CFF1F689CFF1F10B505200C00FEF7BE
:105B20005DFF210002000248FFF72EFB10BDC046BA
:105B300000400540034B1960036803499B005A501D
:105B40007047C046F89BFF1FFC9BFF1F10B5002A43
:105B500015D000290AD001290ED01C4B1C4A9B6885
:105B60001A6780221B4B52011A6010BD80218903E5
:105B70001948FFF77FFBF0E780210904F8E70029C7
:105B800004D001290CD0002905D00EE08021124854
:105B90008903FFF77DFB1048FFF788FBC00D08E085
:105BA00080210D480904FFF773FB0B48FFF77EFBCC
:105BB000400D01238343D8D08022084B5201DA677D
:105BC000BFF34F8FBFF36F8FCFE7C04600ED00E00C
:105BD000E559000000E100E00040054004E100E07C
:105BE00013B56B46DC1D012221000248FFF78CFB38
:105BF000207816BD0040054010B50748FFF762FB4E
:105C0000802109030400084202D00348FFF75CFB2F
:105C100080208003204010BD0040054010B507489B
:105C2000FFF750FB802109030400084202D003481B
:105C3000FFF74AFB80200004204010BD00400540D3
:105C400070B505000C002800FFF7E8FF0028FAD027
:105C5000014BE4B2DC6070BD0040054088230021A8
:105C6000014A5B01D1507047007004408022064B0E
:105C700010B519680A4381211A601A688A431A60AC
:105C800000F014F910BDC046000004407FB51F4B62
:105C90001D68002D38D1012401A91D481C600D701C
:105CA000FFF7A4FB0220FEF799FE1A49FAF782FCDF
:105CB0000122194B0138524258605A61D9690532A4
:105CC0000A43DA61DA6802AE2243DA60DA69300048
:105CD0001443DC61114CFFF749F931002000757164
:105CE000FFF708F90720FEF779FE0A49FAF762FC88
:105CF000013880B20A4BA0609B680A4AB0331A6030
:105D00008022094B52051A607FBDC046049CFF1FCC
:105D10000070034040420F00FC700340000004404C
:105D200000ED00E06D5C000000E100E0054B10B507
:105D30001B68002B01D1FFF7A9FF034B9869C043F3
:105D400010BDC046049CFF1FFC700340C021024AE6
:105D500013688B4313607047000004408023024A9D
:105D600011680B43136070470000044010B5040035
:105D7000FFF7DCFF8121094B241A1A6880208A432F
:105D80001A604022A4B29C60196881430A431A60D9
:105D90000122196881430A431A6010BD00000440C3
:105DA0008022024B52055A607047C046FCE100E079
:105DB00070B50D0004001600FFF742FB6B1C07D006
:105DC00000212000FFF74CFB31002000FFF742FBD1
:105DD00070BD10B50222FFF7EBFF10BD70B50D00CE
:105DE00004001600FFF72CFB6B1C0BD031002000C9
:105DF000FFF760FB01212000FFF732FB00212000AC
:105E0000FFF728FB70BD10B50022FFF7E7FF10BDBC
:105E100010B50400431C0CD110BD9C4208D12000D9
